:020000040800F2
:10000000408D002045010008890A0008550A0008B3
:10001000850A0008D90400085F13000800000000EA
:10002000000000000000000000000000A10C00081B
:100030002B09000800000000110B0008B50D000896
:100040005F0100085F0100085F0100085F01000810
:100050005F0100085F0100085F0100085F01000800
:100060005F0100085F0100085F010008BD0600088D
:100070005F0100085F0100085F0100085F010008E0
:100080005F0100085F0100085F0100085F010008D0
:100090005F0100085F0100085F0100085F010008C0
:1000A0005F0100085F0100085F0100085F010008B0
:1000B0005F0100085F0100085F0100085F010008A0
:1000C0005F0100085F0100085F0100085F01000890
:1000D0005F0100085F010008A11100085F0100082E
:1000E0005F0100085F0100085F0100085F01000870
:1000F0005F0100085F0100085F0100085F01000860
:100100005F0100085F010008190E00085F01000888
:100110005F0100085F0100085F0100085F0100083F
:100120005F0100085F010008F50600085F01000894
:10013000DFF80CD000F018F80048004769140008F8
:10014000408D00200648804706480047FEE7FEE74E
:10015000FEE7FEE7FEE7FEE7FEE7FEE7FEE7FEE777
:10016000B90D000831010008064C074D06E0E068B3
:1001700040F0010394E8070098471034AC42F6D3EE
:10018000FFF7DAFFFC1500081C16000800B589B05F
:1001900001214FF4017000F0F9FC0121022000F070
:1001A000D5FC0120ADF8200000208DF8230008A91F
:1001B0002D4800F0BBFB2D4800F04AFE684600F0D9
:1001C000A7FF4720ADF800007C20ADF80400002018
:1001D000ADF80600ADF802006946244800F046FF7D
:1001E0002021224800F039FF0021204800F023FEA2
:1001F0001F4800F095F8002003908DF810008DF84E
:1002000011004FF4002005900020069001208DF889
:100210001C0003A9164800F0D1F84FF4004000F08C
:1002200079FC002301221946114800F0EFF8012162
:100230000F4800F05FF80E4800F044F900BF0C488A
:1002400000F0B1F80028FAD1094800F040F900BFE9
:10025000074800F09EF80028FAD10121044800F078
:100260008DF809B000BD0000000801400004004006
:100270000024014000B58BB00121084600F056FC77
:10028000164800F06FFA16480090164801900020BA
:1002900002904FF47A500390002004908020059043
:1002A00040000690800007902020089000020990EE
:1002B00000200A906946094800F019FB012107480F
:1002C00000F044FA01220221044800F007FB01215A
:1002D00003484C3800F019F80BB000BD080002408C
:1002E0004C2401404000002010B5FFF74FFFFFF7FE
:1002F000C1FF10BD21B1826842F00102826003E0BB
:10030000826822F001028260704721B1826842F463
:100310008072826003E0826822F48072826070479B
:1003200010B504461248844208D10121401500F05E
:100330003DFC0021601500F039FC17E00D488442B7
:1003400008D10121001500F031FC0021201500F03A
:100350002DFC0BE00848844208D10121C80300F0BD
:1003600025FC00214FF4004000F020FC10BD0000EF
:100370000024014000280140003C014021B1826876
:1003800042F48012826003E0826822F4801282606C
:100390007047014600208A6802F004020AB1012079
:1003A00000E000207047014600208A6802F0080241
:1003B0000AB1012000E000207047000030B502467D
:1003C0000020002350680F4C20400D790C6844EA4F
:1003D00005242043506090680B4C2040D1E9025422
:1003E0002C434D7944EA450420439060D06A20F4C0
:1003F00070000C7C641EE4B2234340EA0350D062D8
:1004000030BD0000FFFEF0FFFDF7F1FFF0B5044640
:100410000D4600200021092D11DDE068A5F10A0636
:1004200006EB4607072606FA07F18843A5F10A06F8
:1004300006EB460603FA06F10843E0600CE020698B
:1004400005EB4507072606FA07F1884305EB450645
:1004500003FA06F108432061072A0FDA606B561E83
:1004600006EB86071F2606FA07F18843561E06EBA1
:10047000860605FA06F10843606322E00D2A0FDACA
:10048000206BD61F06EB86071F2606FA07F1884366
:10049000D61F06EB860605FA06F10843206310E036
:1004A000E06AA2F10D0606EB86071F2606FA07F1A1
:1004B0008843A2F10D0606EB860605FA06F108430D
:1004C000E062F0BD816841F0080181607047816899
:1004D00041F004018160704700BFFEE700B589B0BC
:1004E0000121042000F052FB0121224800F02EFBE4
:1004F0001020ADF8200000208DF8230003208DF897
:10050000220008A91C4800F011FA4FF0804000F0CA
:100510009FFC01A800F0FCFD4720ADF804007C2002
:10052000ADF808000020ADF80A00ADF8060001A9FA
:100530004FF0804000F09AFD2021480600F08DFD2C
:1005400000214FF0804000F076FC00F081F824207C
:10055000049000200590079004A900F085F801217F
:10056000002000F04BF80021084600F097F809B091
:1005700000BD0000010000200008014000B58BB064
:100580000121022000F0D2FA164800F0EBF81648DC
:10059000009016480190102002904FF47A5003907A
:1005A0000020049080200590400006908000079075
:1005B000202008900002099000200A90694609480E
:1005C00000F095F90121074800F0C0F8012202214E
:1005D000044800F083F90121002000F023F80BB05B
:1005E00000BD0000300402402074004040000020A4
:1005F00010B5FFF773FFFFF7C1FF10BD39B1084A0F
:100600001268012383401A43054B1A6006E0044A2E
:100610001268012383409A43014B1A60704700001F
:100620000074004041B1094A12684FF4805383407E
:100630001A43064B1A6007E0044A12684FF48053CD
:1006400083409A43014B1A607047000000740040D9
:1006500010B50121480700F089FA00214FF0005041
:1006600000F084FA10BD000030B5002200230A4CCF
:10067000226840F6FE748440A243D1E900452C4331
:100680008D682C43CD6844EA050303FA00F4224345
:10069000014C226030BD00000074004008B500220B
:1006A0000092054A009200F10802009B1A44009251
:1006B000009A116008BD00000074004010B50220CF
:1006C00000F0F6F830B105A000F04CFE002108481B
:1006D00000F0B1FB022000F02BF810BDD2F4C6B53B
:1006E000CAFDBEDDB2C9BCAFCDEAB1CF0D0A000074
:1006F0000004004010B5084800F0DAF838B107A04F
:1007000000F030FE00214FF0804000F094FB0248E2
:1007100000F00EF810BD000000020010D2F4C6B5C3
:10072000CAFDBEDDB2A5B7C5CDEAB1CF0D0A000046
:1007300000F0805111B10349086001E002494860AE
:1007400070470000040402400000024021B102682A
:1007500042F00102026004E002684FF6FE731A40A4
:100760000260704701684FF6FE721140016000217F
:10077000016041608160C1604B49884208D14A49AB
:100780000839496841F00F01474A083A51608AE048
:1007900045491431884208D143490839496841F034
:1007A000F001414A083A51607DE03F4928318842D2
:1007B00008D13D490839496841F470613A4A083A1C
:1007C000516070E038493C31884208D136490839D7
:1007D000496841F47041344A083A516063E0324953
:1007E0005031884208D130490839496841F47021B4
:1007F0002D4A083A516056E02B496431884208D1AD
:1008000029490839496841F47001274A083A51607A
:1008100049E025497831884208D123490839496897
:1008200041F07061204A083A51603CE01F4988421B
:1008300006D1011F096841F00F01021F116032E06B
:100840001A491431884208D11849091F096841F032
:10085000F001164A121F116025E014492831884220
:1008600008D11249091F096841F470610F4A121F2B
:10087000116018E00D493C31884208D10B49091F2D
:10088000096841F47041094A121F11600BE00749E1
:100890005031884207D10549091F096841F4702188
:1008A000024A121F1160704708000240080402400B
:1008B00001460020002201F0805313B1054B1A6855
:1008C00001E0054B1A6802EA01030BB1012000E0C8
:1008D0000020704700040240000002401AB1036883
:1008E0000B43036002E003688B430360704710B55D
:1008F0000022026847F6F0739A430C6A8B68234320
:100900000C6923434C6923438C692343CC692343FB
:100910004C6A23438C6A23431A430260CB684360CA
:100920000B6883604B68C36010BD70472DE9F041D0
:10093000024600250026002000230024002791F80D
:1009400003C00CF00F0591F803C00CF0100CBCF1C3
:10095000000F03D091F802C04CEA050591F800C0E1
:10096000BCF1000F31D0146800202BE04FF0010CD7
:100970000CFA00F3B1F800C00CEA03069E4220D145
:1009800083004FF00F0C0CFA03F7BC4305FA03FC8D
:100990004CEA040491F803C0BCF1280F06D14FF0D3
:1009A000010C0CFA00FCC2F814C00AE091F803C074
:1009B000BCF1480F05D14FF0010C0CFA00FCC2F855
:1009C00010C0401C0828D1D31460B1F800C0BCF19D
:1009D000FF0F34DD546800202EE000F1080C4FF0CA
:1009E000010808FA0CF3B1F800C00CEA03069E42B5
:1009F00021D183004FF00F0C0CFA03F7BC4305FA2A
:100A000003FC4CEA040491F803C0BCF1280F05D1A3
:100A100000F1080C08FA0CF8C2F8148091F803C031
:100A2000BCF1480F07D100F1080C4FF0010808FA9B
:100A30000CF8C2F81080401C0828CED35460BDE8E2
:100A4000F0810246002093680B400BB1012000E0CA
:100A50000020704700BFFEE708B50121402000F0EC
:100A600095F87E20ADF8000003208DF802000420E8
:100A70008DF8030069460248FFF758FF08BD0000E3
:100A80000018014000BFFEE77047000070B500216C
:100A900000230F22C47804B3154C246804F4E064E6
:100AA000C4F5E064210AC1F10403CA40447804FAA1
:100AB00003F184781440214309010E4C0678A155B6
:100AC000047804F01F050124AC4005786D11AD00D9
:100AD00005F1E025C5F8004109E0047804F01F05A0
:100AE0000124AC40044D0678761145F8264070BDCF
:100AF0000CED00E000E400E080E100E00249014389
:100B0000024A1160704700000000FA050CED00E099
:100B10007047000001460020034A506820F440401E
:100B200008435060704700000010024029B1064A97
:100B300052690243044B5A6104E0034A52698243FA
:100B4000014B5A61704700000010024029B1064A6B
:100B5000D2690243044BDA6104E0034AD26982435A
:100B6000014BDA61704700000010024029B1064ACB
:100B700012690243044B1A6104E0034A126982437A
:100B8000014B1A61704700000010024029B1064A6B
:100B900092690243044B9A6104E0034A92698243DA
:100BA000014B9A61704700000010024029B1064ACB
:100BB000D2680243044BDA6004E0034AD2688243FD
:100BC000014BDA60704700000010024030B5002190
:100BD0000022002400232D4D6D6805F00C0121B189
:100BE000042905D0082923D105E0294D056022E01C
:100BF000274D05601FE0254D6D6805F47012234DEB
:100C00006D6805F48034022505EB92421CB9214D34
:100C1000554305600BE01D4D6D6805F400351DB1B1
:100C20001C4D5543056002E0194D5543056002E037
:100C3000174D056000BF00BF144D6D6805F0F00151
:100C40000909154D6B5C0568DD4045600F4D6D6809
:100C500005F4E061090A104D6B5C4568DD40856074
:100C60000A4D6D6805F46051C90A0B4D6B5C45680F
:100C7000DD40C560054D6D6805F44041890B074DA9
:100C80006B5CC568B5FBF3F5056130BD0010024033
:100C900000127A0000093D00000000201000002032
:100CA000704710B500F002F810BD00000CB5002030
:100CB000019000903348006840F48030314908606A
:100CC00000BF3048006800F4003000900198401CDC
:100CD0000190009818B90198B0F5A06FF1D129489A
:100CE000006800F4003010B10120009001E0002005
:100CF00000900098012843D12348006840F010007C
:100D0000214908600846006820F003000860084692
:100D1000006840F0020008601A48406819494860BD
:100D20000846406848600846406840F48060486073
:100D30000846406820F47C1048600846406840F44B
:100D4000E81048600846006840F08070086000BF06
:100D50000C48006800F000700028F9D0094840688D
:100D600020F00300074948600846406840F0020050
:100D7000486000BF0348406800F00C000828F9D123
:100D80000CBD00000010024000200240042808D1E1
:100D90004FF0E021096941F004014FF0E0221161B8
:100DA00007E04FF0E021096921F004014FF0E02253
:100DB000116170477047000010B51348006840F09B
:100DC00001001149086008464068104908400E4972
:100DD0004860084600680E4908400B49086008460C
:100DE000006820F4802008600846406820F4FE0077
:100DF00048604FF41F008860FFF753FF4FF000601A
:100E00000449086010BD0000001002400000FFF817
:100E1000FFFFF6FE08ED00E010B50121034800F0E9
:100E20000BF90121014800F003F810BD000C00404F
:100E3000CA430282704721B1028842F00102028057
:100E400004E002884FF6FE731A40028070470000EB
:100E500010B504466848844208D10121C014FFF748
:100E6000A5FE0021E014FFF7A1FEC4E0B4F1804F1D
:100E700008D101210846FFF779FE00210120FFF784
:100E800075FEB8E05D48844208D101210220FFF7D9
:100E90006DFE00210220FFF769FEACE05848844255
:100EA00008D101210420FFF761FE00210420FFF793
:100EB0005DFEA0E05348844208D101210820FFF7DD
:100EC00055FE00210820FFF751FE94E04E48844271
:100ED00008D101211020FFF749FE00211020FFF763
:100EE00045FE88E04948844208D101212020FFF7CF
:100EF0003DFE00212020FFF739FE7CE0444884427B
:100F000008D101214014FFF751FE00216014FFF7C2
:100F10004DFE70E03F48844209D10121C804FFF72B
:100F200045FE00214FF40020FFF740FE63E03A4801
:100F3000844209D101210805FFF738FE00214FF452
:100F40008010FFF733FE56E03448844209D1012176
:100F50004805FFF72BFE00214FF40010FFF726FE97
:100F600049E02F48844208D101214020FFF7FEFDCF
:100F700000214020FFF7FAFD3DE02A48844208D1D5
:100F800001218020FFF7F2FD00218020FFF7EEFD18
:100F900031E02548844208D101218015FFF7E6FDA4
:100FA0000021A015FFF7E2FD25E02048844209D189
:100FB00001210804FFF7FAFD00214FF48030FFF70C
:100FC000F5FD18E01A48844209D101214804FFF7D1
:100FD000EDFD00214FF40030FFF7E8FD0BE0154870
:100FE000844208D101218804FFF7E0FD00214FF47D
:100FF0008020FFF7DBFD10BD002C01400004004005
:1010000000080040000C00400010004000140040A8
:1010100000340140004C01400050014000540140A8
:1010200000180040001C004000200040004001402B
:10103000004401400048014030B502460020002332
:101040000024158A05EA0103958905EA010413B114
:101050000CB1012000E0002030BD82884FF68F7374
:101060001A40828082880A43828070470022028868
:101070001D4B98420ED01D4B98420BD0B0F1804FC3
:1010800008D01B4B984205D01A4B984202D01A4BFD
:10109000984204D14FF68F731A404B881A43174B6E
:1010A000984207D0164B984204D04FF6FF431A409F
:1010B000CB881A4302808B8883850B8803850A4B73
:1010C00098420BD0094B984208D00E4B984205D05D
:1010D0000D4B984202D00D4B984201D10B7A0386FA
:1010E0000123838270470000002C0140003401403E
:1010F0000004004000080040000C004000100040C8
:1011000000140040004001400044014000480140FC
:101110004FF6FF71818000210180C1804180017202
:101120007047000000B585B0012144F20400FFF7CC
:101130002DFD4FF40070ADF8100018208DF813004D
:1011400003208DF8120004A91348FFF7EFFB4FF4BA
:101150008060ADF8100004208DF8130004A90E483B
:10116000FFF7E4FB4FF4E13000900020ADF80400FD
:10117000ADF80600ADF80800ADF80C000C20ADF895
:101180000A006946054800F075F80121034800F09F
:101190002EF805B000BD00000008014000380140F5
:1011A00010B540F22551084800F03AF850B140F22D
:1011B0002551054800F00CF8034800F0C7F801205D
:1011C0000249087010BD00000044004016000020D5
:1011D00010B50022002340F66A14A14200D100BFDE
:1011E0000A1201249440A3B2DC43048010BD21B153
:1011F000828942F40052828104E082894DF6FF73B5
:101200001A408281704702460020B1F5007F00D16C
:1012100000BF13880B400BB1012000E00020704795
:1012200070B50246002400230025002040F66A160F
:10123000B14200D100BFC1F3421501F01F030126E6
:1012400006FA03F3012D02D19689334006E0022D00
:1012500002D1168A334001E0968A33400C120126EF
:1012600006FA04F41688344013B10CB1012000E0F2
:10127000002070BD2DE9F04786B005460E460024DB
:10128000A24600BFA1460027B08900B100BF2F468B
:101290002C8A4CF6FF700440F08804432C82AC8901
:1012A0004EF6F3100440B088318908437189084331
:1012B0000443AC81AC8A4FF6FF400440B08904433C
:1012C000AC8201A8FFF782FC1F48874202D1DDF8FB
:1012D00010A001E0DDF80CA0A88900F4004040B1A6
:1012E0000AEBCA0000EB0A1031684900B0FBF1F8C4
:1012F00007E00AEBCA0000EB0A1031688900B0FB76
:10130000F1F86420B8FBF0F004012009642101FB2E
:101310001089A88900F4004040B1322000EBC900D8
:10132000B0FBF1F000F00700044308E0322000EBCE
:1013300009106421B0FBF1F000F00F0004432C8190
:1013400006B0BDE8F08700000038014001468888FB
:10135000C0F308007047C1F308028280704700BFE5
:10136000FEE70000014A024900F013B845140008E6
:101370003C00002002E008C8121F08C1002AFAD170
:1013800070477047002001E001C1121F002AFBD105
:1013900070472DE9F04116460F460446002503E04C
:1013A0003946B047641C6D1C20780028F8D12846C7
:1013B000BDE8F08110B56FF00400FFF7E7FC0A48C4
:1013C00000680A49B0FBF1F0094908700846007846
:1013D00000EB4001C1EBC0104FF6FF7101EAC00005
:1013E0000449088010BD00002000002000127A008F
:1013F00034000020360000200146114A12884A437A
:101400004FF0E0235A6100229A611A46126942F0B5
:1014100001021A6100BF4FF0E022106900F00102E2
:101420001AB100F48032002AF5D04FF0E0221269A0
:1014300022F001024FF0E0231A6100229A61704706
:101440003600002070B504460D46E1B20548FFF7AE
:1014500082FF00BF80210348FFF7D5FE0028F9D0A6
:10146000204670BD00380140FFF7A4FFFFF75AFE89
:1014700000F092F8FEF738FFFFF7BAF8FFF7ECFA42
:101480002CA0FFF76FFF53E020212E48FFF7D9FA79
:10149000012815D11420FFF7AFFF20212948FFF7BD
:1014A000D0FA01280CD100BF20212648FFF7C9FA45
:1014B0000128F9D024A0FFF755FF01202649087024
:1014C00008212048FFF7BDFA012815D11420FFF7A5
:1014D00093FF08211B48FFF7B4FA01280CD100BF85
:1014E00008211848FFF7ADFA0128F9D01BA0FFF733
:1014F00039FF01201D4908701C480078012809D1D6
:1015000000201A49087001218807FFF794FC18A0F1
:10151000FFF728FF10480078012809D100200E4964
:10152000087001211848FFF786FC18A0FFF71AFF82
:10153000AAE70000B3F5CABCBBAFCDEAB1CF0D0A34
:101540000000000000180140B0B4BCFC31D2D1B1A1
:10155000BBB0B4CFC20D0A0014000020B0B4BCFC74
:1015600032D2D1B1BBB0B4CFC20D0A0015000020F9
:10157000BFAACABCB2A5B7C5466C617368D6D0CA4B
:10158000FDBEDD0D0A00000000040040BFAACABC79
:10159000C2BCD2F40D0A000008B54FF4A060FFF7FA
:1015A000ADFA1D208DF8000000208DF80100032009
:1015B0008DF8020001208DF803006846FFF766FAF7
:1015C0000B208DF8000000208DF8010001208DF81F
:1015D00002008DF803006846FFF758FA3A208DF8AC
:1015E000000000208DF8010002208DF8020001208B
:1015F0008DF803006846FFF749FA08BD1C1600087D
:101600000000002040000000741300085C16000871
:1016100040000020008D000084130008000000003E
:101620000102030401020304060708090204060874
:1016300000000000000000000000000000A24A04BA
:101640000000000000000000010203040607080972
:0C1650000000000000000000000000008E
:0400000508000131BD
:00000001FF
